:100000000C9436000C945E000C945E000C945E0020
:100010000C945E000C945E000C945E000C945E00E8
:100020000C945E000C945E000C945E000C945E00D8
:100030000C945E000C945E000C945E000C945E00C8
:100040000C94A20A0C945E000C9414080C945E00AC
:100050000C945E000C945E000C945E000C945E00A8
:100060000C94AF020C945E00A801090911241FBE74
:10007000CFEFD4E0DEBFCDBF12E0A0E0B1E0E4E717
:10008000F7E102C005900D92AE36B107D9F713E043
:10009000AEE6B2E001C01D92A433B107E1F710E073
:1000A000CCE6D0E004C02297FE010E94B40BC83613
:1000B000D107C9F70E940D080C94B80B0C940000EE
:1000C0000F931F93CF93DF93689F8001699F100D5B
:1000D000789F100D1124C8010E947C00EC0100974C
:1000E00029F060E070E0A8010E947E01CE01DF915E
:1000F000CF911F910F910895CF93DF93BC01823070
:10010000910510F462E070E0A0913203B0913303E6
:10011000ED01E0E0F0E040E050E021C0888199810D
:100120008617970769F48A819B81309719F093832A
:10013000828304C09093330380933203FE0134C062
:100140006817790738F44115510519F08417950798
:1001500008F4AC01FE018A819B819C01E901209792
:10016000E9F641155105A9F1CA01861B970B0497C1
:1001700008F4BA01E0E0F0E02AC08D919C9111975B
:1001800084179507F9F46417750781F412968D9119
:100190009C911397309719F09383828304C09093B6
:1001A000330380933203FD0132964CC0CA01861B93
:1001B000970BFD01E80FF91F6193719302978D93DF
:1001C0009C9340C0FD01828193819C01D9011097CD
:1001D000A1F68091300390913103892B41F48091F5
:1001E00060029091610290933103809330034091BB
:1001F0006202509163024115510541F44DB75EB75B
:1002000080915E0290915F02481B590B2091300350
:1002100030913103CA01821B930B8617970780F038
:10022000AB014E5F5F4F8417950750F0420F531F8D
:100230005093310340933003F9016193719302C0ED
:10024000E0E0F0E0CF01DF91CF910895CF93DF930D
:10025000009709F450C0EC0122971B821A82A091EA
:100260003203B0913303109709F140E050E0AC172E
:10027000BD0708F1BB83AA83FE0121913191E20FF2
:10028000F31FAE17BF0779F48D919C911197280F3A
:10029000391F2E5F3F4F3983288312968D919C9191
:1002A00013979B838A834115510571F4D0933303CF
:1002B000C093320320C012968D919C911397AD018B
:1002C000009711F0DC01D3CFFA01D383C2832191CF
:1002D0003191E20FF31FCE17DF0769F4888199810E
:1002E000280F391F2E5F3F4FFA01318320838A8107
:1002F0009B8193838283DF91CF910895DC0101C0BC
:100300006D9341505040E0F7089581E0809377026B
:100310006093720210927502109276020895809195
:10032000710290917002891B0895909170028091E2
:100330007102981710F080E00895E0916E02F0913C
:100340006F02E90FF11D80819F5F90937002089505
:100350000895DF93CF930F92CDB7DEB76983809175
:1003600077028823A9F0809176028032B0F48091E0
:100370007502E0917302F0917402E80FF11D608341
:10038000809175028F5F809375028093760205C01D
:10039000CE01019661E00E9492020F90CF91DF9111
:1003A00008950E94A90108956091730270917402EA
:1003B000809172024091760221E00E944D021092DB
:1003C000750210927602109277020895862F60913E
:1003D0006E0270916F02413208F040E20E941702F3
:1003E000109270028093710208950E94E6010895B0
:1003F00080E290E061E070E00E94600080936E0215
:1004000090936F02109270021092710280E290E05D
:1004100061E070E00E946000809373029093740228
:1004200010927502109276020E9431040895982F5E
:10043000413210F040E02FC0809179028823E1F72B
:1004400081E0809379028FEF80938A02109281027B
:1004500040938202990F916090937A0285EE809387
:10046000BC00809179028130E1F380918102841790
:1004700010F440918102A0917F02B091800220E0AF
:1004800030E007C0FB01E20FF31F8D9180832F5FE7
:100490003F4F2417B8F3842F08951F93582F122F1E
:1004A000413210F081E03CC0809179028823E1F76D
:1004B00082E0809379028FEF80938A02109281020A
:1004C00040938202A0917F02B0918002FB0102C0A2
:1004D00081918D938E2F861B8417D0F3852F90E00A
:1004E000880F991F80937A0285EE8093BC001123B8
:1004F00021F0809179028230E1F380918A028F3F6E
:1005000011F480E00DC080918A02803211F482E003
:1005100007C080918A02803311F084E001C083E03B
:100520001F910895482F613210F081E00895809165
:100530007902843011F082E0089560938602A091E0
:100540008302B0918402842F9C01F90102C0819141
:100550008D938E2F841B8617D0F380E008951F9211
:100560000F920FB60F9211242F933F934F935F93E7
:100570006F937F938F939F93AF93BF93EF93FF936B
:100580008091B90090E0887F90708036910509F4E1
:10059000E2C081369105CCF58832910509F47BC023
:1005A00089329105B4F48031910509F46FC081312D
:1005B00091053CF4009709F438C1089709F040C14F
:1005C00065C08831910509F466C0809709F038C18B
:1005D0007FC08034910509F4A3C08134910544F4AF
:1005E0008033910509F47FC0C89709F029C186C0FE
:1005F0008035910509F486C08835910509F495C0C8
:100600008834910509F01CC19EC08839910509F410
:1006100004C189399105ECF48837910509F49BC030
:10062000893791054CF48836910509F494C08037D8
:10063000910509F005C18FC08838910509F4EDC016
:100640008039910509F48DC08038910509F0F8C012
:1006500088C0803B910509F4B2C0813B91054CF400
:10066000803A910509F491C0883A910509F0E8C0F3
:10067000A6C0803C910509F4D4C0883C910509F4DA
:10068000D0C0883B910509F0DBC0B1C080917A02EF
:100690008093BB00C0C09091810280918202981724
:1006A00078F490918102E0917F02F0918002E90F4D
:1006B000F11D80818093BB009F5F90938102ABC04E
:1006C00085ED8093BC008091BC0084FDFCCFB6C05A
:1006D00080E280938A0285ED8093BC008091BC000B
:1006E00084FDFCCFABC080E380938A0285ED8093CC
:1006F000BC008091BC0084FDFCCFA0C088E3809347
:100700008A028FC0809181029091BB00E0917F02AC
:10071000F0918002E80FF11D90838F5F809381023A
:10072000909181028091820274C0809181029091A7
:10073000BB00E0917F02F0918002E80FF11D9083F1
:100740008F5F8093810285ED8093BC008091BC0017
:1007500084FDFCCF73C083E08093790210928902FC
:100760005AC080918902803208F057C08091890276
:100770009091BB00E0918702F0918802E80FF11D93
:1007800090838F5F8093890246C080918902803276
:1007900048F480918902E0918702F0918802E80F85
:1007A000F11D108260918902E0917D02F0917E023C
:1007B000809187029091880270E0099532C084E0B0
:1007C000809379021092850210928602E0917B025A
:1007D000F0917C02099580918602882341F481E0A2
:1007E00080938602E0918302F091840210829091BE
:1007F0008502E0918302F0918402E90FF11D80816E
:100800008093BB009F5F90938502909185028091B9
:100810008602981710F485EC01C085E88093BC002F
:100820000FC085EC8093BC0009C010928A0285ED50
:100830008093BC008091BC0084FDFCCF10927902B3
:10084000FF91EF91BF91AF919F918F917F916F91A8
:100850005F914F913F912F910F900FBE0F901F907E
:10086000189510927902449A459AE9EBF0E080815C
:100870008E7F808380818D7F808388E48093B80021
:1008800085E48093BC0080E290E061E070E00E942B
:10089000600080937F029093800280E290E061E0AC
:1008A00070E00E946000809383029093840280E253
:1008B00090E061E070E00E94600080938702909376
:1008C00088020895CF92DF92EF92FF920F931F93C9
:1008D000DF93CF9300D000D0CDB7DEB7082F1982B9
:1008E0001A821B821C8288E792E068E470E00E9412
:1008F000850188E792E060E070E00E94D10188E71E
:1009000092E00E94D40110E00C5F1F4F88E792E054
:1009100068E470E0A8010E94F50188E792E00E9477
:100920008F01015010407E010894E11CF11CE00E83
:10093000F11ECC24DD2488E792E00E949501282F47
:10094000C8018C199D09049714F4F70120830894B9
:10095000C11CD11C0894E108F108C8018C199D093B
:1009600097FFE9CF69817A818B819C810F900F90ED
:100970000F900F90CF91DF911F910F91FF90EF900B
:10098000DF90CF900895CF92DF92EF92FF920F9376
:100990001F93DF93CF9300D0CDB7DEB7082F1A8215
:1009A000198288E792E068E470E00E94850188E798
:1009B00092E060E070E00E94D10188E792E00E943E
:1009C000D40110E00E5F1F4F88E792E068E470E00A
:1009D000A8010E94F50188E792E00E948F01015072
:1009E00010407E010894E11CF11CE00EF11ECC24A5
:1009F000DD2488E792E00E949501282FC8018C1918
:100A00009D09029714F4F70120830894C11CD11C9E
:100A10000894E108F108C8018C199D0997FFE9CFF6
:100A200089819A810F900F90CF91DF911F910F9143
:100A3000FF90EF90DF90CF900895CF92DF92EF92EA
:100A4000FF921F93CF93DF93182F7B016A0188E7F2
:100A500092E068E470E00E94850188E792E0612FEF
:100A60000E94A90188E792E00E94D40188E792E001
:100A700068E470E0A7010E94F501C0E0D0E00FC07B
:100A800088E792E00E948F018823D1F388E792E003
:100A90000E949501F601EC0FFD1F80832196CE1573
:100AA000DF0570F3DF91CF911F91FF90EF90DF9002
:100AB000CF900895EF92FF920F931F93DF93CF9300
:100AC000CDB7DEB762970FB6F894DEBF0FBECDBFCD
:100AD00080E062E170E0AE014F5F5F4F0E941D0554
:100AE00005E113E0C80160E071E00E949609C801C9
:100AF00063E171E00E947709498150E060E070E0B5
:100B0000C80122E030E00E94970AC80162E271E069
:100B10000E9477094A8150E060E070E0C80122E05D
:100B200030E00E94820A87E3E82E81E0F82EC801B7
:100B3000B7010E9477094B8150E060E070E0C80186
:100B400022E030E00E94820AC801B7010E947709C2
:100B50004C8150E060E070E0C80122E030E00E948B
:100B6000970AC80169E371E00E9477094D8150E05E
:100B700060E070E0C80122E030E00E94820AC80113
:100B8000B7010E9477094E8150E060E070E0C80133
:100B900022E030E00E94820AC801B7010E94770972
:100BA0004F8150E060E070E0C80122E030E00E9438
:100BB000970AC8016DE471E00E947709488550E00A
:100BC00060E070E0C80122E030E00E94970AC801AE
:100BD0006FE571E00E947709498550E060E070E0C0
:100BE000C80122E030E00E94970AC80160E771E086
:100BF0000E9477094A8550E060E070E0C80122E079
:100C000030E00E94970AC80162E871E00E9477090B
:100C10004B8550E060E070E0C80122E030E00E94C7
:100C2000970AC80168E971E00E9477094C8550E095
:100C300060E070E0C80122E030E00E94970AC8013D
:100C40006AEA71E00E9477094D8550E060E070E04B
:100C5000C80122E030E00E94970AC8016CEB71E005
:100C60000E9477094E8550E060E070E0C80122E004
:100C700030E00E94820AC801B7010E9477094F85BF
:100C800050E060E070E0C80122E030E00E94970A86
:100C9000C80163ED71E00E947709488950E060E087
:100CA00070E0C80122E030E00E94820AC801B7016A
:100CB0000E947709498950E060E070E0C80122E0B5
:100CC00030E00E94970AC80169EE71E00E9477093E
:100CD0004A8950E060E070E0C80122E030E00E9404
:100CE000820AC801B7010E9477094B8950E060E091
:100CF00070E0C80122E030E00E94970A62960FB6C9
:100D0000F894DEBF0FBECDBFCF91DF911F910F9141
:100D1000FF90EF9008951F93182F88E792E068E402
:100D200070E00E94850188E792E0612F0E94A9018E
:100D300088E792E00E94D40188E792E068E470E0DE
:100D400041E050E00E94F50188E792E00E948F01A7
:100D50008823D1F388E792E00E9495011F910895BE
:100D600080E003C080E00E948B068570D9F381E0AB
:100D70000E9462049B01AC01232F342F452F55277D
:100D8000B901CA010895EF92FF920F931F93182F94
:100D9000062F28E7E22E22E0F22EC70168E470E079
:100DA0000E948501C701612F0E94A901C701602F20
:100DB0000E94A901C7010E94D4011F910F91FF90C9
:100DC000EF90089510928B0285E193E061E072E06C
:100DD0000E94960907C06F5F60938B0260688BE08A
:100DE0000E94C3060E94B00661507442844F904036
:100DF00024F060918B0267FFEECF85E193E066E11E
:100E000072E00E949609089560918B02680F6F77D7
:100E100060938B0260688BE00E94C3060895EF9296
:100E2000FF920F931F9385E193E00E94BA088823F5
:100E300031F085E193E00E94CE080E945A050E949D
:100E4000B0067B018C0140918D0250918E02609121
:100E50008F027091900285E193E00E94390A85E14A
:100E600093E06BE172E00E94770960918B0285E16B
:100E700093E070E00E947A0A85E193E06BE172E012
:100E80000E94770985E193E0B801A7010E946F0AEB
:100E9000D801C7010F97A109B109825F9342A44FFE
:100EA000B04028F080918C028F5F80938C028091FB
:100EB0008C02843068F08FE0E816F104010511051A
:100EC00014F48FEF01C081E00E94040710928C029D
:100ED00062E370E080E090E00E94EA0A1F910F91C7
:100EE000FF90EF900895EF92FF920F931F9308E702
:100EF00012E0C8010E94F80155E1E52E53E0F52EFD
:100F0000C70140E855E260E070E00E945108C70167
:100F10006DE172E00E949609C80168E470E00E94E9
:100F20008501C8016FEB70E00E94D101C8010E94E9
:100F3000D40161E070E080E090E00E94EA0A89E07C
:100F40006BE00E94C30687E060E80E94C306C70109
:100F50006AE272E00E9496098DE00E94C304A0E05C
:100F6000B0E0BA2FA92F982F882780938D029093F5
:100F70008E02A0938F02B0939002C70169E372E0E2
:100F80000E94770940918D0250918E0260918F02EC
:100F900070919002C7010E943D0A8AE06DEF0E94A5
:100FA000C3066AE070E080E090E00E94EA0A0E94D6
:100FB0005A05C7016AE472E00E9477098DE00E9439
:100FC000C304AC0160E070E0762F652F542F4427F6
:100FD00040938D0250938E0260938F027093900223
:100FE000C7010E943D0A87E060E80E94C30689E0CD
:100FF00068E00E94C3068AE069EF0E94C3060E946F
:101000005A050E94E206C70166E172E00E94960955
:101010001F910F91FF90EF9008950E94140B0E9472
:1010200073070E940F07FDCF1F920F920FB60F920A
:1010300011242F933F934F935F936F937F938F93DD
:101040009F93AF93BF93EF93FF934091C600E091BE
:101050001103F0911203CF01019660E870E00E9445
:101060004E0B9C01809113039091140328173907AC
:1010700039F0EF56FD4F4083309312032093110354
:10108000FF91EF91BF91AF919F918F917F916F9160
:101090005F914F913F912F910F900FBE0F901F9036
:1010A0001895AF92BF92CF92DF92EF92FF920F937B
:1010B0001F93CF93DF936C017A018B01DC011496AF
:1010C000AD90BC901597CB01BA0122E030E040E032
:1010D00050E00E94830B205C3D4B404F5F4FCA01A4
:1010E000B901A80197010E94830BC901DA01019798
:1010F000A109B109292F3A2F4B2F552747FD5A95A2
:101100000196A11DB11DE5012883E601EE81FF8155
:1011100081508083EA85FB85208141E050E0CA014F
:101120000E8402C0880F991F0A94E2F7282B2083AF
:10113000EA85FB852081CA010F8402C0880F991FB0
:101140000A94E2F7282B2083EA85FB8580810888B2
:1011500002C0440F551F0A94E2F7842B8083DF916D
:10116000CF911F910F91FF90EF90DF90CF90BF90A4
:10117000AF900895DC011296ED91FC911397E05821
:10118000FF4F8191919180589F4F20813181821B27
:10119000930B60E870E00E944E0B0895CF93DF93AD
:1011A000DC011296ED91FC911397EF01CE57DF4FC2
:1011B00048815981E058FF4F80819181E058F0408B
:1011C0008417950719F42FEF3FEF0CC0E40FF51FBC
:1011D0002081CA01019660E870E00E944E0B99835D
:1011E000888330E0C901DF91CF910895FC01A0858B
:1011F000B18521898C9190E0022E02C0959587954A
:101200000A94E2F780FFF6CF0484F585E02D608331
:10121000089588E692E0909316038093150381E980
:1012200092E0909318038093170385EC90E09093DD
:101230001A038093190384EC90E090931C0380932D
:101240001B0380EC90E090931E0380931D0381ECC0
:1012500090E09093200380931F0386EC90E090939E
:1012600022038093210384E08093230383E080930F
:10127000240387E08093250385E080932603089567
:101280000F931F93CF93DF938C01EB0109C021963D
:10129000D801ED91FC910190F081E02DC8010995F4
:1012A00068816623A1F7DF91CF911F910F91089577
:1012B000EF92FF920F931F93CF93DF938C017B01EB
:1012C000EA010CC0D7016D917D01D801ED91FC912F
:1012D0000190F081E02DC80109952197209791F7A1
:1012E000DF91CF911F910F91FF90EF900895DC0156
:1012F000ED91FC910280F381E02D099508950F9303
:101300001F938C01DC01ED91FC910190F081E02DA7
:101310006DE00995D801ED91FC910190F081E02DEF
:10132000C8016AE009951F910F9108950F931F93CB
:101330008C010E947709C8010E947F091F910F91BB
:1013400008952F923F924F925F926F927F928F9269
:101350009F92AF92BF92CF92DF92EF92FF920F9344
:101360001F93DF93CF93CDB7DEB7A0970FB6F89456
:10137000DEBF0FBECDBF1C016A017B0141155105C7
:101380006105710549F4DC01ED91FC910190F0815A
:10139000E02D60E3099554C0882499245401422E1D
:1013A00055246624772401E010E00C0F1D1F080D62
:1013B000191DC701B601A30192010E94610BF8013A
:1013C00060830894811C911CA11CB11CC701B6014B
:1013D000A30192010E94610BC901DA016C017D0138
:1013E000C114D104E104F104F1F681E0E82EF12CFE
:1013F000EC0EFD1EE80CF91C3E010894611C711CEA
:10140000D501C4010197A109B1096C01C818D90817
:1014100014C0F601EE0DFF1D60816A3010F4605DAE
:1014200001C0695CD101ED91FC910190F081E02D4A
:10143000C10109950894E108F1086E147F0449F789
:10144000A0960FB6F894DEBF0FBECDBFCF91DF914F
:101450001F910F91FF90EF90DF90CF90BF90AF90D2
:101460009F908F907F906F905F904F903F902F90C4
:1014700008952AE00E94A10908950F931F938C01FB
:101480000E94390AC8010E947F091F910F91089597
:10149000EF92FF920F931F93CF93DF93EC017A01AA
:1014A0008B0177FF0FC0E881F9810190F081E02D79
:1014B0006DE2099510950095F094E094E11CF11C03
:1014C000011D111DCE01B801A7012AE00E94A1094A
:1014D000DF91CF911F910F91FF90EF9008950F939F
:1014E0001F938C010E94480AC8010E947F091F9126
:1014F0000F910895AB01662757FD6095762F0E94E6
:10150000480A0895DC012115310541F4ED91FC9163
:101510000190F081E02D642F099508952A3031055E
:1015200019F40E94480A08950E94A10908950F9392
:101530001F938C010E94820AC8010E947F091F919B
:101540000F9108951F920F920FB60F9211242F93AF
:101550003F938F939F93AF93BF9380912B03909171
:101560002C03A0912D03B0912E0330912F030196EF
:10157000A11DB11D232F2D5F2D3720F02D57019672
:10158000A11DB11D20932F0380932B0390932C0357
:10159000A0932D03B0932E038091270390912803ED
:1015A000A0912903B0912A030196A11DB11D80933A
:1015B000270390932803A0932903B0932A03BF9194
:1015C000AF919F918F913F912F910F900FBE0F90F0
:1015D0001F901895EF92FF920F931F937B018C0140
:1015E0008FB7F89440912B0350912C0360912D03F9
:1015F00070912E038FBF2FB7F89480912B03909199
:101600002C03A0912D03B0912E032FBF841B950BAB
:10161000A60BB70BE816F9060A071B0760F71F9120
:101620000F91FF90EF900895789484B5826084BD07
:1016300084B5816084BD85B5826085BD85B58160D6
:1016400085BDEEE6F0E0808181608083E1E8F0E036
:10165000808182608083808181608083E0E8F0E027
:10166000808181608083E1EBF0E080818460808311
:10167000E0EBF0E0808181608083EAE7F0E0808148
:1016800084608083808182608083808181608083A8
:101690008081806880831092C100089597FB092E95
:1016A00007260AD077FD04D049D006D000201AF4CE
:1016B000709561957F4F0895F6F7909581959F4FAE
:1016C0000895A1E21A2EAA1BBB1BFD010DC0AA1F83
:1016D000BB1FEE1FFF1FA217B307E407F50720F09B
:1016E000A21BB30BE40BF50B661F771F881F991F16
:1016F0001A9469F760957095809590959B01AC015F
:10170000BD01CF01089597FB092E05260ED057FD88
:1017100004D0D7DF0AD0001C38F45095409530959E
:1017200021953F4F4F4F5F4F0895F6F79095809565
:10173000709561957F4F8F4F9F4F0895AA1BBB1BDC
:1017400051E107C0AA1FBB1FA617B70710F0A61BC1
:10175000B70B881F991F5A95A9F780959095BC01E2
:10176000CD010895EE0FFF1F0590F491E02D09942F
:04177000F894FFCF1B
:101774000A41443737343620526567697374657299
:10178400733A005374617475732028307830293AA1
:101794002000436170204461746120283078312D29
:1017A400307833293A20002E005654204461746165
:1017B40020283078342D307836293A20004361705F
:1017C4002053657475702028307837293A200056E4
:1017D400542053657475702028307838293A2000D5
:1017E4004558432053657475702028307839293A58
:1017F4002000436F6E66696775726174696F6E204D
:1018040028307861293A20004361702044616320C4
:10181400412028307862293A2000436170204461D5
:101824006320422028307863293A200043617020E5
:101834004F666673657420283078642D3078652986
:101844003A2000436170204761696E202830786631
:101854002D30783130293A2000566F6C742047615E
:10186400696E2028307831312D30783132293A2090
:101874000043616C6962726174696E6720436170D0
:10188400444143204100646F6E65002F00496E6936
:101894007469616C697A696E670047657474696E0E
:1018A40067206F666673657400466163746F72794E
:1018B400206F66667365743A200043616C696272D6
:1018C40061746564206F66667365743A2000200055
:0E18D4003403000000000000F6084009580927
:00000001FF
